{
  "_format": "hh-sol-artifact-1",
  "contractName": "Partier",
  "sourceName": "contracts/Posts.sol",
  "abi": [
    {
      "anonymous": false,
      "inputs": [
        {
          "indexed": false,
          "internalType": "uint256",
          "name": "id",
          "type": "uint256"
        },
        {
          "indexed": false,
          "internalType": "string",
          "name": "confName",
          "type": "string"
        }
      ],
      "name": "ConferenceCreated",
      "type": "event"
    },
    {
      "anonymous": false,
      "inputs": [
        {
          "indexed": false,
          "internalType": "uint256",
          "name": "id",
          "type": "uint256"
        },
        {
          "indexed": false,
          "internalType": "uint256",
          "name": "conference",
          "type": "uint256"
        },
        {
          "indexed": false,
          "internalType": "address payable",
          "name": "author",
          "type": "address"
        },
        {
          "indexed": false,
          "internalType": "string",
          "name": "partyDesc",
          "type": "string"
        },
        {
          "indexed": false,
          "internalType": "uint256",
          "name": "ticPrice",
          "type": "uint256"
        },
        {
          "indexed": false,
          "internalType": "string",
          "name": "imageHash",
          "type": "string"
        },
        {
          "indexed": false,
          "internalType": "string",
          "name": "profileName",
          "type": "string"
        },
        {
          "indexed": false,
          "internalType": "string",
          "name": "profImageHash",
          "type": "string"
        }
      ],
      "name": "Posted",
      "type": "event"
    },
    {
      "anonymous": false,
      "inputs": [
        {
          "indexed": false,
          "internalType": "string",
          "name": "profileName",
          "type": "string"
        },
        {
          "indexed": false,
          "internalType": "string",
          "name": "profImageHash",
          "type": "string"
        }
      ],
      "name": "ProfileCreated",
      "type": "event"
    },
    {
      "inputs": [],
      "name": "GetPosts",
      "outputs": [
        {
          "components": [
            {
              "internalType": "uint256",
              "name": "id",
              "type": "uint256"
            },
            {
              "internalType": "uint256",
              "name": "conference",
              "type": "uint256"
            },
            {
              "internalType": "address payable",
              "name": "author",
              "type": "address"
            },
            {
              "internalType": "string",
              "name": "partyDesc",
              "type": "string"
            },
            {
              "internalType": "uint256",
              "name": "ticPrice",
              "type": "uint256"
            },
            {
              "internalType": "string",
              "name": "imageHash",
              "type": "string"
            },
            {
              "internalType": "string",
              "name": "profileName",
              "type": "string"
            },
            {
              "internalType": "string",
              "name": "profImageHash",
              "type": "string"
            }
          ],
          "internalType": "struct Partier.Post[]",
          "name": "",
          "type": "tuple[]"
        }
      ],
      "stateMutability": "view",
      "type": "function"
    },
    {
      "inputs": [
        {
          "internalType": "uint256",
          "name": "",
          "type": "uint256"
        }
      ],
      "name": "conferences",
      "outputs": [
        {
          "internalType": "uint256",
          "name": "id",
          "type": "uint256"
        },
        {
          "internalType": "string",
          "name": "confName",
          "type": "string"
        },
        {
          "internalType": "uint256",
          "name": "totalConfPosts",
          "type": "uint256"
        }
      ],
      "stateMutability": "view",
      "type": "function"
    },
    {
      "inputs": [
        {
          "internalType": "string",
          "name": "_confName",
          "type": "string"
        }
      ],
      "name": "createConference",
      "outputs": [],
      "stateMutability": "nonpayable",
      "type": "function"
    },
    {
      "inputs": [
        {
          "internalType": "string",
          "name": "_profileName",
          "type": "string"
        },
        {
          "internalType": "string",
          "name": "_image",
          "type": "string"
        }
      ],
      "name": "createProfile",
      "outputs": [],
      "stateMutability": "nonpayable",
      "type": "function"
    },
    {
      "inputs": [
        {
          "internalType": "uint256",
          "name": "",
          "type": "uint256"
        }
      ],
      "name": "posts",
      "outputs": [
        {
          "internalType": "uint256",
          "name": "id",
          "type": "uint256"
        },
        {
          "internalType": "uint256",
          "name": "conference",
          "type": "uint256"
        },
        {
          "internalType": "address payable",
          "name": "author",
          "type": "address"
        },
        {
          "internalType": "string",
          "name": "partyDesc",
          "type": "string"
        },
        {
          "internalType": "uint256",
          "name": "ticPrice",
          "type": "uint256"
        },
        {
          "internalType": "string",
          "name": "imageHash",
          "type": "string"
        },
        {
          "internalType": "string",
          "name": "profileName",
          "type": "string"
        },
        {
          "internalType": "string",
          "name": "profImageHash",
          "type": "string"
        }
      ],
      "stateMutability": "view",
      "type": "function"
    },
    {
      "inputs": [
        {
          "internalType": "address",
          "name": "",
          "type": "address"
        }
      ],
      "name": "profiles",
      "outputs": [
        {
          "internalType": "string",
          "name": "profileName",
          "type": "string"
        },
        {
          "internalType": "string",
          "name": "profImageHash",
          "type": "string"
        },
        {
          "internalType": "uint256",
          "name": "totalprofilePosts",
          "type": "uint256"
        }
      ],
      "stateMutability": "view",
      "type": "function"
    },
    {
      "inputs": [],
      "name": "totalConfs",
      "outputs": [
        {
          "internalType": "uint256",
          "name": "",
          "type": "uint256"
        }
      ],
      "stateMutability": "view",
      "type": "function"
    },
    {
      "inputs": [],
      "name": "totalPosts",
      "outputs": [
        {
          "internalType": "uint256",
          "name": "",
          "type": "uint256"
        }
      ],
      "stateMutability": "view",
      "type": "function"
    },
    {
      "inputs": [
        {
          "internalType": "uint256",
          "name": "_conference",
          "type": "uint256"
        },
        {
          "internalType": "string",
          "name": "_desc",
          "type": "string"
        },
        {
          "internalType": "uint256",
          "name": "_price",
          "type": "uint256"
        },
        {
          "internalType": "string",
          "name": "_image",
          "type": "string"
        }
      ],
      "name": "uploadPost",
      "outputs": [],
      "stateMutability": "nonpayable",
      "type": "function"
    }
  ],
  "bytecode": "0x608060405260008055600060015534801561001957600080fd5b50611eb8806100296000396000f3fe608060405234801561001057600080fd5b50600436106100935760003560e01c806389bbcce21161006657806389bbcce21461013b5780638e53fb4114610157578063ba1feb8a14610175578063bbe1562714610191578063f16b9323146101c357610093565b8063018611f7146100985780630b1e7f83146100b4578063248e0a98146100eb57806379fe9a9a14610109575b600080fd5b6100b260048036038101906100ad9190611228565b6101e1565b005b6100ce60048036038101906100c991906112c7565b610623565b6040516100e29897969594939291906113c3565b60405180910390f35b6100f36108bb565b604051610100919061145d565b60405180910390f35b610123600480360381019061011e91906112c7565b6108c1565b60405161013293929190611478565b60405180910390f35b610155600480360381019061015091906114b6565b610973565b005b61015f610a95565b60405161016c919061145d565b60405180910390f35b61018f600480360381019061018a91906114ff565b610a9b565b005b6101ab60048036038101906101a691906115b5565b610bd8565b6040516101ba939291906115e2565b60405180910390f35b6101cb610d12565b6040516101d89190611816565b60405180910390f35b6000808154809291906101f390611867565b919050555060006003600086815260200190815260200160002090506000600460003373ffffffffffffffffffffffffffffffffffffffff1673ffffffffffffffffffffffffffffffffffffffff16815260200190815260200160002090506000826000015403610299576040517f08c379a000000000000000000000000000000000000000000000000000000000815260040161029090611947565b60405180910390fd5b60008160000180546102aa90611996565b9050036102ec576040517f08c379a00000000000000000000000000000000000000000000000000000000081526004016102e390611a5f565b60405180910390fd5b81600301600081548092919061030190611867565b919050555080600301600081548092919061031b90611867565b9190505550816002016000549080600181540180825580915050600190039060005260206000200160009091909190915055806002016000549080600181540180825580915050600190039060005260206000200160009091909190915055600260405180610100016040528060005481526020018881526020013373ffffffffffffffffffffffffffffffffffffffff1681526020018781526020018681526020018581526020018360000180546103d390611996565b80601f01602080910402602001604051908101604052809291908181526020018280546103ff90611996565b801561044c5780601f106104215761010080835404028352916020019161044c565b820191906000526020600020905b81548152906001019060200180831161042f57829003601f168201915b5050505050815260200183600101805461046590611996565b80601f016020809104026020016040519081016040528092919081815260200182805461049190611996565b80156104de5780601f106104b3576101008083540402835291602001916104de565b820191906000526020600020905b8154815290600101906020018083116104c157829003601f168201915b50505050508152509080600181540180825580915050600190039060005260206000209060080201600090919091909150600082015181600001556020820151816001015560408201518160020160006101000a81548173ffffffffffffffffffffffffffffffffffffffff021916908373ffffffffffffffffffffffffffffffffffffffff160217905550606082015181600301908161057f9190611c2b565b506080820151816004015560a082015181600501908161059f9190611c2b565b5060c08201518160060190816105b59190611c2b565b5060e08201518160070190816105cb9190611c2b565b5050507fd9c9139124f5245eb753c8cd36841f1a2e128a8acc19417b3d64c0d6bbd8abba60005487338888888760000188600101604051610613989796959493929190611d81565b60405180910390a1505050505050565b6002818154811061063357600080fd5b90600052602060002090600802016000915090508060000154908060010154908060020160009054906101000a900473ffffffffffffffffffffffffffffffffffffffff169080600301805461068890611996565b80601f01602080910402602001604051908101604052809291908181526020018280546106b490611996565b80156107015780601f106106d657610100808354040283529160200191610701565b820191906000526020600020905b8154815290600101906020018083116106e457829003601f168201915b50505050509080600401549080600501805461071c90611996565b80601f016020809104026020016040519081016040528092919081815260200182805461074890611996565b80156107955780601f1061076a57610100808354040283529160200191610795565b820191906000526020600020905b81548152906001019060200180831161077857829003601f168201915b5050505050908060060180546107aa90611996565b80601f01602080910402602001604051908101604052809291908181526020018280546107d690611996565b80156108235780601f106107f857610100808354040283529160200191610823565b820191906000526020600020905b81548152906001019060200180831161080657829003601f168201915b50505050509080600701805461083890611996565b80601f016020809104026020016040519081016040528092919081815260200182805461086490611996565b80156108b15780601f10610886576101008083540402835291602001916108b1565b820191906000526020600020905b81548152906001019060200180831161089457829003601f168201915b5050505050905088565b60015481565b60036020528060005260406000206000915090508060000154908060010180546108ea90611996565b80601f016020809104026020016040519081016040528092919081815260200182805461091690611996565b80156109635780601f1061093857610100808354040283529160200191610963565b820191906000526020600020905b81548152906001019060200180831161094657829003601f168201915b5050505050908060030154905083565b6001600081548092919061098690611867565b919050555060405180608001604052806001548152602001828152602001600067ffffffffffffffff8111156109bf576109be6110fd565b5b6040519080825280602002602001820160405280156109ed5781602001602082028036833780820191505090505b5081526020016000815250600360006001548152602001908152602001600020600082015181600001556020820151816001019081610a2c9190611c2b565b506040820151816002019080519060200190610a4992919061102e565b50606082015181600301559050507fa0799b824711ab36e4bb6cf45dc1f503a68bc650191b294788af0a03f222c3b160015482604051610a8a929190611e1b565b60405180910390a150565b60005481565b6040518060800160405280838152602001828152602001600067ffffffffffffffff811115610acd57610acc6110fd565b5b604051908082528060200260200182016040528015610afb5781602001602082028036833780820191505090505b5081526020016000815250600460003373ffffffffffffffffffffffffffffffffffffffff1673ffffffffffffffffffffffffffffffffffffffff1681526020019081526020016000206000820151816000019081610b5a9190611c2b565b506020820151816001019081610b709190611c2b565b506040820151816002019080519060200190610b8d92919061102e565b50606082015181600301559050507fe8df07a26c0206148d1371ba95ba01ffe4807900d30c64abe9f92d64300d3d8e8282604051610bcc929190611e4b565b60405180910390a15050565b6004602052806000526040600020600091509050806000018054610bfb90611996565b80601f0160208091040260200160405190810160405280929190818152602001828054610c2790611996565b8015610c745780601f10610c4957610100808354040283529160200191610c74565b820191906000526020600020905b815481529060010190602001808311610c5757829003601f168201915b505050505090806001018054610c8990611996565b80601f0160208091040260200160405190810160405280929190818152602001828054610cb590611996565b8015610d025780601f10610cd757610100808354040283529160200191610d02565b820191906000526020600020905b815481529060010190602001808311610ce557829003601f168201915b5050505050908060030154905083565b60606002805480602002602001604051908101604052809291908181526020016000905b8282101561102557838290600052602060002090600802016040518061010001604052908160008201548152602001600182015481526020016002820160009054906101000a900473ffffffffffffffffffffffffffffffffffffffff1673ffffffffffffffffffffffffffffffffffffffff1673ffffffffffffffffffffffffffffffffffffffff168152602001600382018054610dd490611996565b80601f0160208091040260200160405190810160405280929190818152602001828054610e0090611996565b8015610e4d5780601f10610e2257610100808354040283529160200191610e4d565b820191906000526020600020905b815481529060010190602001808311610e3057829003601f168201915b5050505050815260200160048201548152602001600582018054610e7090611996565b80601f0160208091040260200160405190810160405280929190818152602001828054610e9c90611996565b8015610ee95780601f10610ebe57610100808354040283529160200191610ee9565b820191906000526020600020905b815481529060010190602001808311610ecc57829003601f168201915b50505050508152602001600682018054610f0290611996565b80601f0160208091040260200160405190810160405280929190818152602001828054610f2e90611996565b8015610f7b5780601f10610f5057610100808354040283529160200191610f7b565b820191906000526020600020905b815481529060010190602001808311610f5e57829003601f168201915b50505050508152602001600782018054610f9490611996565b80601f0160208091040260200160405190810160405280929190818152602001828054610fc090611996565b801561100d5780601f10610fe25761010080835404028352916020019161100d565b820191906000526020600020905b815481529060010190602001808311610ff057829003601f168201915b50505050508152505081526020019060010190610d36565b50505050905090565b82805482825590600052602060002090810192821561106a579160200282015b8281111561106957825182559160200191906001019061104e565b5b509050611077919061107b565b5090565b5b8082111561109457600081600090555060010161107c565b5090565b6000604051905090565b600080fd5b600080fd5b6000819050919050565b6110bf816110ac565b81146110ca57600080fd5b50565b6000813590506110dc816110b6565b92915050565b600080fd5b600080fd5b6000601f19601f8301169050919050565b7f4e487b7100000000000000000000000000000000000000000000000000000000600052604160045260246000fd5b611135826110ec565b810181811067ffffffffffffffff82111715611154576111536110fd565b5b80604052505050565b6000611167611098565b9050611173828261112c565b919050565b600067ffffffffffffffff821115611193576111926110fd565b5b61119c826110ec565b9050602081019050919050565b82818337600083830152505050565b60006111cb6111c684611178565b61115d565b9050828152602081018484840111156111e7576111e66110e7565b5b6111f28482856111a9565b509392505050565b600082601f83011261120f5761120e6110e2565b5b813561121f8482602086016111b8565b91505092915050565b60008060008060808587031215611242576112416110a2565b5b6000611250878288016110cd565b945050602085013567ffffffffffffffff811115611271576112706110a7565b5b61127d878288016111fa565b935050604061128e878288016110cd565b925050606085013567ffffffffffffffff8111156112af576112ae6110a7565b5b6112bb878288016111fa565b91505092959194509250565b6000602082840312156112dd576112dc6110a2565b5b60006112eb848285016110cd565b91505092915050565b6112fd816110ac565b82525050565b600073ffffffffffffffffffffffffffffffffffffffff82169050919050565b600061132e82611303565b9050919050565b61133e81611323565b82525050565b600081519050919050565b600082825260208201905092915050565b60005b8381101561137e578082015181840152602081019050611363565b60008484015250505050565b600061139582611344565b61139f818561134f565b93506113af818560208601611360565b6113b8816110ec565b840191505092915050565b6000610100820190506113d9600083018b6112f4565b6113e6602083018a6112f4565b6113f36040830189611335565b8181036060830152611405818861138a565b905061141460808301876112f4565b81810360a0830152611426818661138a565b905081810360c083015261143a818561138a565b905081810360e083015261144e818461138a565b90509998505050505050505050565b600060208201905061147260008301846112f4565b92915050565b600060608201905061148d60008301866112f4565b818103602083015261149f818561138a565b90506114ae60408301846112f4565b949350505050565b6000602082840312156114cc576114cb6110a2565b5b600082013567ffffffffffffffff8111156114ea576114e96110a7565b5b6114f6848285016111fa565b91505092915050565b60008060408385031215611516576115156110a2565b5b600083013567ffffffffffffffff811115611534576115336110a7565b5b611540858286016111fa565b925050602083013567ffffffffffffffff811115611561576115606110a7565b5b61156d858286016111fa565b9150509250929050565b600061158282611303565b9050919050565b61159281611577565b811461159d57600080fd5b50565b6000813590506115af81611589565b92915050565b6000602082840312156115cb576115ca6110a2565b5b60006115d9848285016115a0565b91505092915050565b600060608201905081810360008301526115fc818661138a565b90508181036020830152611610818561138a565b905061161f60408301846112f4565b949350505050565b600081519050919050565b600082825260208201905092915050565b6000819050602082019050919050565b61165c816110ac565b82525050565b61166b81611323565b82525050565b600082825260208201905092915050565b600061168d82611344565b6116978185611671565b93506116a7818560208601611360565b6116b0816110ec565b840191505092915050565b6000610100830160008301516116d46000860182611653565b5060208301516116e76020860182611653565b5060408301516116fa6040860182611662565b50606083015184820360608601526117128282611682565b91505060808301516117276080860182611653565b5060a083015184820360a086015261173f8282611682565b91505060c083015184820360c08601526117598282611682565b91505060e083015184820360e08601526117738282611682565b9150508091505092915050565b600061178c83836116bb565b905092915050565b6000602082019050919050565b60006117ac82611627565b6117b68185611632565b9350836020820285016117c885611643565b8060005b8581101561180457848403895281516117e58582611780565b94506117f083611794565b925060208a019950506001810190506117cc565b50829750879550505050505092915050565b6000602082019050818103600083015261183081846117a1565b905092915050565b7f4e487b7100000000000000000000000000000000000000000000000000000000600052601160045260246000fd5b6000611872826110ac565b91507fffffffffffffffffffffffffffffffffffffffffffffffffffffffffffffffff82036118a4576118a3611838565b5b600182019050919050565b7f5468697320636f6e666572656e6365206973206e6f742072656769737472656460008201527f2c20706c656173652061736b20666f7220616e2061646d696e20746f2072656760208201527f6973746572206974000000000000000000000000000000000000000000000000604082015250565b600061193160488361134f565b915061193c826118af565b606082019050919050565b6000602082019050818103600083015261196081611924565b9050919050565b7f4e487b7100000000000000000000000000000000000000000000000000000000600052602260045260246000fd5b600060028204905060018216806119ae57607f821691505b6020821081036119c1576119c0611967565b5b50919050565b7f546869732070726f66696c65206973206e6f74207265676973747265642c207060008201527f6c656173652061736b20666f7220616e2061646d696e20746f2072656769737460208201527f6572206974000000000000000000000000000000000000000000000000000000604082015250565b6000611a4960458361134f565b9150611a54826119c7565b606082019050919050565b60006020820190508181036000830152611a7881611a3c565b9050919050565b60008190508160005260206000209050919050565b60006020601f8301049050919050565b600082821b905092915050565b600060088302611ae17fffffffffffffffffffffffffffffffffffffffffffffffffffffffffffffffff82611aa4565b611aeb8683611aa4565b95508019841693508086168417925050509392505050565b6000819050919050565b6000611b28611b23611b1e846110ac565b611b03565b6110ac565b9050919050565b6000819050919050565b611b4283611b0d565b611b56611b4e82611b2f565b848454611ab1565b825550505050565b600090565b611b6b611b5e565b611b76818484611b39565b505050565b5b81811015611b9a57611b8f600082611b63565b600181019050611b7c565b5050565b601f821115611bdf57611bb081611a7f565b611bb984611a94565b81016020851015611bc8578190505b611bdc611bd485611a94565b830182611b7b565b50505b505050565b600082821c905092915050565b6000611c0260001984600802611be4565b1980831691505092915050565b6000611c1b8383611bf1565b9150826002028217905092915050565b611c3482611344565b67ffffffffffffffff811115611c4d57611c4c6110fd565b5b611c578254611996565b611c62828285611b9e565b600060209050601f831160018114611c955760008415611c83578287015190505b611c8d8582611c0f565b865550611cf5565b601f198416611ca386611a7f565b60005b82811015611ccb57848901518255600182019150602085019450602081019050611ca6565b86831015611ce85784890151611ce4601f891682611bf1565b8355505b6001600288020188555050505b505050505050565b60008154611d0a81611996565b611d14818661134f565b94506001821660008114611d2f5760018114611d4557611d78565b60ff198316865281151560200286019350611d78565b611d4e85611a7f565b60005b83811015611d7057815481890152600182019150602081019050611d51565b808801955050505b50505092915050565b600061010082019050611d97600083018b6112f4565b611da4602083018a6112f4565b611db16040830189611335565b8181036060830152611dc3818861138a565b9050611dd260808301876112f4565b81810360a0830152611de4818661138a565b905081810360c0830152611df88185611cfd565b905081810360e0830152611e0c8184611cfd565b90509998505050505050505050565b6000604082019050611e3060008301856112f4565b8181036020830152611e42818461138a565b90509392505050565b60006040820190508181036000830152611e65818561138a565b90508181036020830152611e79818461138a565b9050939250505056fea2646970667358221220e3273fdc55b78586bcb9a99ad07f32f6ca8cbf9baa78109c481dc0290b52590364736f6c63430008110033",
  "linkReferences": {},
  "deployedLinkReferences": {}
}