{
  "_format": "hh-sol-artifact-1",
  "contractName": "Partier",
  "sourceName": "contracts/Posts.sol",
  "abi": [
    {
      "anonymous": false,
      "inputs": [
        {
          "indexed": false,
          "internalType": "uint256",
          "name": "id",
          "type": "uint256"
        },
        {
          "indexed": false,
          "internalType": "string",
          "name": "confName",
          "type": "string"
        }
      ],
      "name": "ConferenceCreated",
      "type": "event"
    },
    {
      "anonymous": false,
      "inputs": [
        {
          "indexed": false,
          "internalType": "uint256",
          "name": "id",
          "type": "uint256"
        },
        {
          "indexed": false,
          "internalType": "address payable",
          "name": "author",
          "type": "address"
        },
        {
          "indexed": false,
          "internalType": "string",
          "name": "partyDesc",
          "type": "string"
        },
        {
          "indexed": false,
          "internalType": "uint256",
          "name": "ticPrice",
          "type": "uint256"
        },
        {
          "indexed": false,
          "internalType": "string",
          "name": "imageHash",
          "type": "string"
        },
        {
          "indexed": false,
          "internalType": "string",
          "name": "profileName",
          "type": "string"
        },
        {
          "indexed": false,
          "internalType": "string",
          "name": "profImageHash",
          "type": "string"
        }
      ],
      "name": "Posted",
      "type": "event"
    },
    {
      "anonymous": false,
      "inputs": [
        {
          "indexed": false,
          "internalType": "string",
          "name": "profileName",
          "type": "string"
        },
        {
          "indexed": false,
          "internalType": "string",
          "name": "profImageHash",
          "type": "string"
        }
      ],
      "name": "ProfileCreated",
      "type": "event"
    },
    {
      "inputs": [],
      "name": "GetPosts",
      "outputs": [
        {
          "components": [
            {
              "internalType": "uint256",
              "name": "id",
              "type": "uint256"
            },
            {
              "internalType": "address payable",
              "name": "author",
              "type": "address"
            },
            {
              "internalType": "string",
              "name": "partyDesc",
              "type": "string"
            },
            {
              "internalType": "uint256",
              "name": "ticPrice",
              "type": "uint256"
            },
            {
              "internalType": "string",
              "name": "imageHash",
              "type": "string"
            },
            {
              "internalType": "string",
              "name": "profileName",
              "type": "string"
            },
            {
              "internalType": "string",
              "name": "profImageHash",
              "type": "string"
            }
          ],
          "internalType": "struct Partier.Post[]",
          "name": "",
          "type": "tuple[]"
        }
      ],
      "stateMutability": "view",
      "type": "function"
    },
    {
      "inputs": [
        {
          "internalType": "uint256",
          "name": "",
          "type": "uint256"
        }
      ],
      "name": "conferences",
      "outputs": [
        {
          "internalType": "uint256",
          "name": "id",
          "type": "uint256"
        },
        {
          "internalType": "string",
          "name": "confName",
          "type": "string"
        },
        {
          "internalType": "uint256",
          "name": "totalConfPosts",
          "type": "uint256"
        }
      ],
      "stateMutability": "view",
      "type": "function"
    },
    {
      "inputs": [
        {
          "internalType": "string",
          "name": "_confName",
          "type": "string"
        }
      ],
      "name": "createConference",
      "outputs": [],
      "stateMutability": "nonpayable",
      "type": "function"
    },
    {
      "inputs": [
        {
          "internalType": "string",
          "name": "_profileName",
          "type": "string"
        },
        {
          "internalType": "string",
          "name": "_image",
          "type": "string"
        }
      ],
      "name": "createProfile",
      "outputs": [],
      "stateMutability": "nonpayable",
      "type": "function"
    },
    {
      "inputs": [
        {
          "internalType": "uint256",
          "name": "",
          "type": "uint256"
        }
      ],
      "name": "posts",
      "outputs": [
        {
          "internalType": "uint256",
          "name": "id",
          "type": "uint256"
        },
        {
          "internalType": "address payable",
          "name": "author",
          "type": "address"
        },
        {
          "internalType": "string",
          "name": "partyDesc",
          "type": "string"
        },
        {
          "internalType": "uint256",
          "name": "ticPrice",
          "type": "uint256"
        },
        {
          "internalType": "string",
          "name": "imageHash",
          "type": "string"
        },
        {
          "internalType": "string",
          "name": "profileName",
          "type": "string"
        },
        {
          "internalType": "string",
          "name": "profImageHash",
          "type": "string"
        }
      ],
      "stateMutability": "view",
      "type": "function"
    },
    {
      "inputs": [
        {
          "internalType": "address",
          "name": "",
          "type": "address"
        }
      ],
      "name": "profiles",
      "outputs": [
        {
          "internalType": "string",
          "name": "profileName",
          "type": "string"
        },
        {
          "internalType": "string",
          "name": "profImageHash",
          "type": "string"
        },
        {
          "internalType": "uint256",
          "name": "totalprofilePosts",
          "type": "uint256"
        }
      ],
      "stateMutability": "view",
      "type": "function"
    },
    {
      "inputs": [],
      "name": "totalConfs",
      "outputs": [
        {
          "internalType": "uint256",
          "name": "",
          "type": "uint256"
        }
      ],
      "stateMutability": "view",
      "type": "function"
    },
    {
      "inputs": [],
      "name": "totalPosts",
      "outputs": [
        {
          "internalType": "uint256",
          "name": "",
          "type": "uint256"
        }
      ],
      "stateMutability": "view",
      "type": "function"
    },
    {
      "inputs": [
        {
          "internalType": "string",
          "name": "_profileName",
          "type": "string"
        },
        {
          "internalType": "string",
          "name": "_profImageHash",
          "type": "string"
        },
        {
          "internalType": "string",
          "name": "_desc",
          "type": "string"
        },
        {
          "internalType": "uint256",
          "name": "_price",
          "type": "uint256"
        },
        {
          "internalType": "string",
          "name": "_image",
          "type": "string"
        }
      ],
      "name": "uploadPost",
      "outputs": [],
      "stateMutability": "nonpayable",
      "type": "function"
    }
  ],
  "bytecode": "0x608060405260008055600060015534801561001957600080fd5b5061198d806100296000396000f3fe608060405234801561001057600080fd5b50600436106100935760003560e01c80638e53fb41116100665780638e53fb411461013a578063ba1feb8a14610158578063bbe1562714610174578063dfff8367146101a6578063f16b9323146101c257610093565b80630b1e7f8314610098578063248e0a98146100ce57806379fe9a9a146100ec57806389bbcce21461011e575b600080fd5b6100b260048036038101906100ad9190610e1c565b6101e0565b6040516100c59796959493929190610f29565b60405180910390f35b6100d6610472565b6040516100e39190610fb4565b60405180910390f35b61010660048036038101906101019190610e1c565b610478565b60405161011593929190610fcf565b60405180910390f35b61013860048036038101906101339190611142565b61052a565b005b61014261064c565b60405161014f9190610fb4565b60405180910390f35b610172600480360381019061016d919061118b565b610652565b005b61018e60048036038101906101899190611241565b61078f565b60405161019d9392919061126e565b60405180910390f35b6101c060048036038101906101bb91906112b3565b6108c9565b005b6101ca610a57565b6040516101d79190611579565b60405180910390f35b600281815481106101f057600080fd5b90600052602060002090600702016000915090508060000154908060010160009054906101000a900473ffffffffffffffffffffffffffffffffffffffff169080600201805461023f906115ca565b80601f016020809104026020016040519081016040528092919081815260200182805461026b906115ca565b80156102b85780601f1061028d576101008083540402835291602001916102b8565b820191906000526020600020905b81548152906001019060200180831161029b57829003601f168201915b5050505050908060030154908060040180546102d3906115ca565b80601f01602080910402602001604051908101604052809291908181526020018280546102ff906115ca565b801561034c5780601f106103215761010080835404028352916020019161034c565b820191906000526020600020905b81548152906001019060200180831161032f57829003601f168201915b505050505090806005018054610361906115ca565b80601f016020809104026020016040519081016040528092919081815260200182805461038d906115ca565b80156103da5780601f106103af576101008083540402835291602001916103da565b820191906000526020600020905b8154815290600101906020018083116103bd57829003601f168201915b5050505050908060060180546103ef906115ca565b80601f016020809104026020016040519081016040528092919081815260200182805461041b906115ca565b80156104685780601f1061043d57610100808354040283529160200191610468565b820191906000526020600020905b81548152906001019060200180831161044b57829003601f168201915b5050505050905087565b60015481565b60036020528060005260406000206000915090508060000154908060010180546104a1906115ca565b80601f01602080910402602001604051908101604052809291908181526020018280546104cd906115ca565b801561051a5780601f106104ef5761010080835404028352916020019161051a565b820191906000526020600020905b8154815290600101906020018083116104fd57829003601f168201915b5050505050908060030154905083565b6001600081548092919061053d9061162a565b919050555060405180608001604052806001548152602001828152602001600067ffffffffffffffff81111561057657610575611017565b5b6040519080825280602002602001820160405280156105a45781602001602082028036833780820191505090505b50815260200160008152506003600060015481526020019081526020016000206000820151816000015560208201518160010190816105e3919061181e565b506040820151816002019080519060200190610600929190610d68565b50606082015181600301559050507fa0799b824711ab36e4bb6cf45dc1f503a68bc650191b294788af0a03f222c3b1600154826040516106419291906118f0565b60405180910390a150565b60005481565b6040518060800160405280838152602001828152602001600067ffffffffffffffff81111561068457610683611017565b5b6040519080825280602002602001820160405280156106b25781602001602082028036833780820191505090505b5081526020016000815250600460003373ffffffffffffffffffffffffffffffffffffffff1673ffffffffffffffffffffffffffffffffffffffff1681526020019081526020016000206000820151816000019081610711919061181e565b506020820151816001019081610727919061181e565b506040820151816002019080519060200190610744929190610d68565b50606082015181600301559050507fe8df07a26c0206148d1371ba95ba01ffe4807900d30c64abe9f92d64300d3d8e8282604051610783929190611920565b60405180910390a15050565b60046020528060005260406000206000915090508060000180546107b2906115ca565b80601f01602080910402602001604051908101604052809291908181526020018280546107de906115ca565b801561082b5780601f106108005761010080835404028352916020019161082b565b820191906000526020600020905b81548152906001019060200180831161080e57829003601f168201915b505050505090806001018054610840906115ca565b80601f016020809104026020016040519081016040528092919081815260200182805461086c906115ca565b80156108b95780601f1061088e576101008083540402835291602001916108b9565b820191906000526020600020905b81548152906001019060200180831161089c57829003601f168201915b5050505050908060030154905083565b6000808154809291906108db9061162a565b919050555060026040518060e0016040528060005481526020013373ffffffffffffffffffffffffffffffffffffffff1681526020018581526020018481526020018381526020018781526020018681525090806001815401808255809150506001900390600052602060002090600702016000909190919091506000820151816000015560208201518160010160006101000a81548173ffffffffffffffffffffffffffffffffffffffff021916908373ffffffffffffffffffffffffffffffffffffffff16021790555060408201518160020190816109bc919061181e565b506060820151816003015560808201518160040190816109dc919061181e565b5060a08201518160050190816109f2919061181e565b5060c0820151816006019081610a08919061181e565b5050507f2e83035e18cf655b0eaec9ad133d85ff0af945c83488fcc1202d69a5b8aa189d600054338585858a8a604051610a489796959493929190610f29565b60405180910390a15050505050565b60606002805480602002602001604051908101604052809291908181526020016000905b82821015610d5f57838290600052602060002090600702016040518060e0016040529081600082015481526020016001820160009054906101000a900473ffffffffffffffffffffffffffffffffffffffff1673ffffffffffffffffffffffffffffffffffffffff1673ffffffffffffffffffffffffffffffffffffffff168152602001600282018054610b0e906115ca565b80601f0160208091040260200160405190810160405280929190818152602001828054610b3a906115ca565b8015610b875780601f10610b5c57610100808354040283529160200191610b87565b820191906000526020600020905b815481529060010190602001808311610b6a57829003601f168201915b5050505050815260200160038201548152602001600482018054610baa906115ca565b80601f0160208091040260200160405190810160405280929190818152602001828054610bd6906115ca565b8015610c235780601f10610bf857610100808354040283529160200191610c23565b820191906000526020600020905b815481529060010190602001808311610c0657829003601f168201915b50505050508152602001600582018054610c3c906115ca565b80601f0160208091040260200160405190810160405280929190818152602001828054610c68906115ca565b8015610cb55780601f10610c8a57610100808354040283529160200191610cb5565b820191906000526020600020905b815481529060010190602001808311610c9857829003601f168201915b50505050508152602001600682018054610cce906115ca565b80601f0160208091040260200160405190810160405280929190818152602001828054610cfa906115ca565b8015610d475780601f10610d1c57610100808354040283529160200191610d47565b820191906000526020600020905b815481529060010190602001808311610d2a57829003601f168201915b50505050508152505081526020019060010190610a7b565b50505050905090565b828054828255906000526020600020908101928215610da4579160200282015b82811115610da3578251825591602001919060010190610d88565b5b509050610db19190610db5565b5090565b5b80821115610dce576000816000905550600101610db6565b5090565b6000604051905090565b600080fd5b600080fd5b6000819050919050565b610df981610de6565b8114610e0457600080fd5b50565b600081359050610e1681610df0565b92915050565b600060208284031215610e3257610e31610ddc565b5b6000610e4084828501610e07565b91505092915050565b610e5281610de6565b82525050565b600073ffffffffffffffffffffffffffffffffffffffff82169050919050565b6000610e8382610e58565b9050919050565b610e9381610e78565b82525050565b600081519050919050565b600082825260208201905092915050565b60005b83811015610ed3578082015181840152602081019050610eb8565b60008484015250505050565b6000601f19601f8301169050919050565b6000610efb82610e99565b610f058185610ea4565b9350610f15818560208601610eb5565b610f1e81610edf565b840191505092915050565b600060e082019050610f3e600083018a610e49565b610f4b6020830189610e8a565b8181036040830152610f5d8188610ef0565b9050610f6c6060830187610e49565b8181036080830152610f7e8186610ef0565b905081810360a0830152610f928185610ef0565b905081810360c0830152610fa68184610ef0565b905098975050505050505050565b6000602082019050610fc96000830184610e49565b92915050565b6000606082019050610fe46000830186610e49565b8181036020830152610ff68185610ef0565b90506110056040830184610e49565b949350505050565b600080fd5b600080fd5b7f4e487b7100000000000000000000000000000000000000000000000000000000600052604160045260246000fd5b61104f82610edf565b810181811067ffffffffffffffff8211171561106e5761106d611017565b5b80604052505050565b6000611081610dd2565b905061108d8282611046565b919050565b600067ffffffffffffffff8211156110ad576110ac611017565b5b6110b682610edf565b9050602081019050919050565b82818337600083830152505050565b60006110e56110e084611092565b611077565b90508281526020810184848401111561110157611100611012565b5b61110c8482856110c3565b509392505050565b600082601f8301126111295761112861100d565b5b81356111398482602086016110d2565b91505092915050565b60006020828403121561115857611157610ddc565b5b600082013567ffffffffffffffff81111561117657611175610de1565b5b61118284828501611114565b91505092915050565b600080604083850312156111a2576111a1610ddc565b5b600083013567ffffffffffffffff8111156111c0576111bf610de1565b5b6111cc85828601611114565b925050602083013567ffffffffffffffff8111156111ed576111ec610de1565b5b6111f985828601611114565b9150509250929050565b600061120e82610e58565b9050919050565b61121e81611203565b811461122957600080fd5b50565b60008135905061123b81611215565b92915050565b60006020828403121561125757611256610ddc565b5b60006112658482850161122c565b91505092915050565b600060608201905081810360008301526112888186610ef0565b9050818103602083015261129c8185610ef0565b90506112ab6040830184610e49565b949350505050565b600080600080600060a086880312156112cf576112ce610ddc565b5b600086013567ffffffffffffffff8111156112ed576112ec610de1565b5b6112f988828901611114565b955050602086013567ffffffffffffffff81111561131a57611319610de1565b5b61132688828901611114565b945050604086013567ffffffffffffffff81111561134757611346610de1565b5b61135388828901611114565b935050606061136488828901610e07565b925050608086013567ffffffffffffffff81111561138557611384610de1565b5b61139188828901611114565b9150509295509295909350565b600081519050919050565b600082825260208201905092915050565b6000819050602082019050919050565b6113d381610de6565b82525050565b6113e281610e78565b82525050565b600082825260208201905092915050565b600061140482610e99565b61140e81856113e8565b935061141e818560208601610eb5565b61142781610edf565b840191505092915050565b600060e08301600083015161144a60008601826113ca565b50602083015161145d60208601826113d9565b506040830151848203604086015261147582826113f9565b915050606083015161148a60608601826113ca565b50608083015184820360808601526114a282826113f9565b91505060a083015184820360a08601526114bc82826113f9565b91505060c083015184820360c08601526114d682826113f9565b9150508091505092915050565b60006114ef8383611432565b905092915050565b6000602082019050919050565b600061150f8261139e565b61151981856113a9565b93508360208202850161152b856113ba565b8060005b85811015611567578484038952815161154885826114e3565b9450611553836114f7565b925060208a0199505060018101905061152f565b50829750879550505050505092915050565b600060208201905081810360008301526115938184611504565b905092915050565b7f4e487b7100000000000000000000000000000000000000000000000000000000600052602260045260246000fd5b600060028204905060018216806115e257607f821691505b6020821081036115f5576115f461159b565b5b50919050565b7f4e487b7100000000000000000000000000000000000000000000000000000000600052601160045260246000fd5b600061163582610de6565b91507fffffffffffffffffffffffffffffffffffffffffffffffffffffffffffffffff8203611667576116666115fb565b5b600182019050919050565b60008190508160005260206000209050919050565b60006020601f8301049050919050565b600082821b905092915050565b6000600883026116d47fffffffffffffffffffffffffffffffffffffffffffffffffffffffffffffffff82611697565b6116de8683611697565b95508019841693508086168417925050509392505050565b6000819050919050565b600061171b61171661171184610de6565b6116f6565b610de6565b9050919050565b6000819050919050565b61173583611700565b61174961174182611722565b8484546116a4565b825550505050565b600090565b61175e611751565b61176981848461172c565b505050565b5b8181101561178d57611782600082611756565b60018101905061176f565b5050565b601f8211156117d2576117a381611672565b6117ac84611687565b810160208510156117bb578190505b6117cf6117c785611687565b83018261176e565b50505b505050565b600082821c905092915050565b60006117f5600019846008026117d7565b1980831691505092915050565b600061180e83836117e4565b9150826002028217905092915050565b61182782610e99565b67ffffffffffffffff8111156118405761183f611017565b5b61184a82546115ca565b611855828285611791565b600060209050601f8311600181146118885760008415611876578287015190505b6118808582611802565b8655506118e8565b601f19841661189686611672565b60005b828110156118be57848901518255600182019150602085019450602081019050611899565b868310156118db57848901516118d7601f8916826117e4565b8355505b6001600288020188555050505b505050505050565b60006040820190506119056000830185610e49565b81810360208301526119178184610ef0565b90509392505050565b6000604082019050818103600083015261193a8185610ef0565b9050818103602083015261194e8184610ef0565b9050939250505056fea2646970667358221220c24408140105ba8efeab14bec361876f580ec27056af74af5a61451ceb887d6f64736f6c63430008110033",
  "linkReferences": {},
  "deployedLinkReferences": {}
}